{
  "contractName": "FlowControl",
  "abi": [
    {
      "inputs": [
        {
          "internalType": "uint256",
          "name": "purchaseQuantity",
          "type": "uint256"
        }
      ],
      "name": "calcDozenDiscountIF",
      "outputs": [
        {
          "internalType": "bool",
          "name": "",
          "type": "bool"
        }
      ],
      "stateMutability": "pure",
      "type": "function",
      "constant": true
    }
  ],
  "bytecode": "0x608060405234801561001057600080fd5b5061015a806100206000396000f3fe608060405234801561001057600080fd5b506004361061002b5760003560e01c806331b7310714610030575b600080fd5b61004a600480360381019061004591906100c1565b610060565b6040516100579190610109565b60405180910390f35b60008060009050600c8310610078576001905061007d565b600090505b80915050919050565b600080fd5b6000819050919050565b61009e8161008b565b81146100a957600080fd5b50565b6000813590506100bb81610095565b92915050565b6000602082840312156100d7576100d6610086565b5b60006100e5848285016100ac565b91505092915050565b60008115159050919050565b610103816100ee565b82525050565b600060208201905061011e60008301846100fa565b9291505056fea2646970667358221220d6c65a43c2222e1be91a78445565a7eabaa783dbd428345b64bf79c30a4cb0dc64736f6c63430008110033",
  "immutableReferences": {},
  "source": "// SPDX-License-Identifier: MIT\r\npragma solidity ^0.8.17;\r\n\r\n/*\r\n* @title FlowControl\r\n* @author Sebi de la Mata\r\n* @notice some functions to simulate flow control\r\n*/\r\n\r\n\r\ncontract FlowControl {\r\n\r\n    // calculate whether or not we get a dozen donuts discount\r\n    // takes purchase quantity as input and returns boolean whether or not to give discount\r\n    function calcDozenDiscountIF(uint purchaseQuantity) public pure returns (bool) {\r\n\r\n        // initialize a boolean to hold the discount value (false)\r\n        bool giveDozenPrice = false;\r\n        \r\n        // if theyve purchased more than or equal to 12 donuts they get a discount\r\n        if (purchaseQuantity >= 12) {\r\n            giveDozenPrice = true;\r\n        // otherwise the value remains false\r\n        } else {\r\n            giveDozenPrice = false;\r\n        }\r\n\r\n        // then we return our discount status\r\n        return giveDozenPrice;\r\n\r\n    }\r\n\r\n\r\n\r\n\r\n    // decides the status of our discount status\r\n    function calcDozenDiscountWHILE (uint purchaseQuantity) private pure returns (bool) {\r\n        \r\n        // set local var to store default discount stays\r\n        bool giveDozenPrice = false;\r\n\r\n        // initiate the start number of donuts\r\n        uint numDonuts = 1;\r\n\r\n        \r\n        while (numDonuts < purchaseQuantity) {\r\n            numDonuts++;\r\n            if (purchaseQuantity >= 12) {\r\n                \r\n                giveDozenPrice = true;\r\n\r\n                break;\r\n\r\n            }\r\n            \r\n        }\r\n\r\n        return (giveDozenPrice);\r\n\r\n    }\r\n\r\n\r\n\r\n\r\n\r\n}\r\n",
  "sourcePath": "C:\\Users\\sebid\\ethereum_workspace\\second_poject\\contracts\\FlowControl.sol",
  "compiler": {
    "name": "solc",
    "version": "0.8.17+commit.8df45f5f.Emscripten.clang"
  },
  "schemaVersion": "3.4.10",
  "updatedAt": "2022-09-29T00:59:26.380Z",
  "networkType": "ethereum",
  "devdoc": {
    "kind": "dev",
    "methods": {},
    "version": 1
  },
  "userdoc": {
    "kind": "user",
    "methods": {},
    "version": 1
  }
}